{
  "_format": "hh-sol-artifact-1",
  "contractName": "PrivateInfoStorage",
  "sourceName": "contracts/PrivateInfoStorage.sol",
  "abi": [
    {
      "inputs": [
        {
          "internalType": "address",
          "name": "_initialWallet",
          "type": "address"
        }
      ],
      "stateMutability": "nonpayable",
      "type": "constructor"
    },
    {
      "anonymous": false,
      "inputs": [
        {
          "indexed": false,
          "internalType": "string",
          "name": "newInfo",
          "type": "string"
        }
      ],
      "name": "PrivateInfoUpdated",
      "type": "event"
    },
    {
      "anonymous": false,
      "inputs": [
        {
          "indexed": true,
          "internalType": "address",
          "name": "wallet",
          "type": "address"
        }
      ],
      "name": "WalletAdded",
      "type": "event"
    },
    {
      "inputs": [
        {
          "internalType": "address",
          "name": "_newWallet",
          "type": "address"
        }
      ],
      "name": "addWalletToWhitelist",
      "outputs": [],
      "stateMutability": "nonpayable",
      "type": "function"
    },
    {
      "inputs": [],
      "name": "getKiiPrivateInfo",
      "outputs": [
        {
          "internalType": "string",
          "name": "",
          "type": "string"
        }
      ],
      "stateMutability": "view",
      "type": "function"
    },
    {
      "inputs": [],
      "name": "getOwner",
      "outputs": [
        {
          "internalType": "address",
          "name": "",
          "type": "address"
        }
      ],
      "stateMutability": "view",
      "type": "function"
    },
    {
      "inputs": [],
      "name": "getWhitelist",
      "outputs": [
        {
          "internalType": "address[]",
          "name": "",
          "type": "address[]"
        }
      ],
      "stateMutability": "view",
      "type": "function"
    },
    {
      "inputs": [
        {
          "internalType": "string",
          "name": "_kiiPrivateInfo",
          "type": "string"
        }
      ],
      "name": "setKiiPrivateInfo",
      "outputs": [],
      "stateMutability": "nonpayable",
      "type": "function"
    }
  ],
  "bytecode": "0x608060405234801561001057600080fd5b506040516114e73803806114e783398181016040528101906100329190610351565b33600160006101000a81548173ffffffffffffffffffffffffffffffffffffffff021916908373ffffffffffffffffffffffffffffffffffffffff1602179055506100828161008860201b60201c565b506104f9565b600160009054906101000a900473ffffffffffffffffffffffffffffffffffffffff1673ffffffffffffffffffffffffffffffffffffffff163373ffffffffffffffffffffffffffffffffffffffff1614610118576040517f08c379a000000000000000000000000000000000000000000000000000000000815260040161010f90610401565b60405180910390fd5b600260008273ffffffffffffffffffffffffffffffffffffffff1673ffffffffffffffffffffffffffffffffffffffff16815260200190815260200160002060009054906101000a900460ff16156101a5576040517f08c379a000000000000000000000000000000000000000000000000000000000815260040161019c9061046d565b60405180910390fd5b600a600380549050106101ed576040517f08c379a00000000000000000000000000000000000000000000000000000000081526004016101e4906104d9565b60405180910390fd5b6003819080600181540180825580915050600190039060005260206000200160009091909190916101000a81548173ffffffffffffffffffffffffffffffffffffffff021916908373ffffffffffffffffffffffffffffffffffffffff1602179055506001600260008373ffffffffffffffffffffffffffffffffffffffff1673ffffffffffffffffffffffffffffffffffffffff16815260200190815260200160002060006101000a81548160ff0219169083151502179055508073ffffffffffffffffffffffffffffffffffffffff167f9ae14270d96a1e7eba0486d8c340a42fde018a5db0da570f36686e7dd4818f8d60405160405180910390a250565b600080fd5b600073ffffffffffffffffffffffffffffffffffffffff82169050919050565b600061031e826102f3565b9050919050565b61032e81610313565b811461033957600080fd5b50565b60008151905061034b81610325565b92915050565b600060208284031215610367576103666102ee565b5b60006103758482850161033c565b91505092915050565b600082825260208201905092915050565b7f4f6e6c7920746865206f776e65722063616e206578656375746520746869732060008201527f66756e6374696f6e000000000000000000000000000000000000000000000000602082015250565b60006103eb60288361037e565b91506103f68261038f565b604082019050919050565b6000602082019050818103600083015261041a816103de565b9050919050565b7f57616c6c6574206164647265737320616c726561647920616464656400000000600082015250565b6000610457601c8361037e565b915061046282610421565b602082019050919050565b600060208201905081810360008301526104868161044a565b9050919050565b7f57686974656c697374206c696d69742072656163686564000000000000000000600082015250565b60006104c360178361037e565b91506104ce8261048d565b602082019050919050565b600060208201905081810360008301526104f2816104b6565b9050919050565b610fdf806105086000396000f3fe608060405234801561001057600080fd5b50600436106100575760003560e01c80631ff9e1021461005c5780633f0f42e214610078578063893d20e814610094578063d01f63f5146100b2578063f15f5795146100d0575b600080fd5b61007660048036038101906100719190610846565b6100ee565b005b610092600480360381019061008d91906108ed565b6101c8565b005b61009c61042e565b6040516100a99190610929565b60405180910390f35b6100ba610458565b6040516100c79190610a02565b60405180910390f35b6100d8610576565b6040516100e59190610aa3565b60405180910390f35b600160009054906101000a900473ffffffffffffffffffffffffffffffffffffffff1673ffffffffffffffffffffffffffffffffffffffff163373ffffffffffffffffffffffffffffffffffffffff161461017e576040517f08c379a000000000000000000000000000000000000000000000000000000000815260040161017590610b37565b60405180910390fd5b806000908161018d9190610d6d565b507f9885e3c0f7c44cf921cbd6ddcd70326cdd5c47be7a73ee8afc7490336a0b88ba816040516101bd9190610aa3565b60405180910390a150565b600160009054906101000a900473ffffffffffffffffffffffffffffffffffffffff1673ffffffffffffffffffffffffffffffffffffffff163373ffffffffffffffffffffffffffffffffffffffff1614610258576040517f08c379a000000000000000000000000000000000000000000000000000000000815260040161024f90610b37565b60405180910390fd5b600260008273ffffffffffffffffffffffffffffffffffffffff1673ffffffffffffffffffffffffffffffffffffffff16815260200190815260200160002060009054906101000a900460ff16156102e5576040517f08c379a00000000000000000000000000000000000000000000000000000000081526004016102dc90610e8b565b60405180910390fd5b600a6003805490501061032d576040517f08c379a000000000000000000000000000000000000000000000000000000000815260040161032490610ef7565b60405180910390fd5b6003819080600181540180825580915050600190039060005260206000200160009091909190916101000a81548173ffffffffffffffffffffffffffffffffffffffff021916908373ffffffffffffffffffffffffffffffffffffffff1602179055506001600260008373ffffffffffffffffffffffffffffffffffffffff1673ffffffffffffffffffffffffffffffffffffffff16815260200190815260200160002060006101000a81548160ff0219169083151502179055508073ffffffffffffffffffffffffffffffffffffffff167f9ae14270d96a1e7eba0486d8c340a42fde018a5db0da570f36686e7dd4818f8d60405160405180910390a250565b6000600160009054906101000a900473ffffffffffffffffffffffffffffffffffffffff16905090565b6060600160009054906101000a900473ffffffffffffffffffffffffffffffffffffffff1673ffffffffffffffffffffffffffffffffffffffff163373ffffffffffffffffffffffffffffffffffffffff16146104ea576040517f08c379a00000000000000000000000000000000000000000000000000000000081526004016104e190610b37565b60405180910390fd5b600380548060200260200160405190810160405280929190818152602001828054801561056c57602002820191906000526020600020905b8160009054906101000a900473ffffffffffffffffffffffffffffffffffffffff1673ffffffffffffffffffffffffffffffffffffffff1681526020019060010190808311610522575b5050505050905090565b6060600160009054906101000a900473ffffffffffffffffffffffffffffffffffffffff1673ffffffffffffffffffffffffffffffffffffffff163373ffffffffffffffffffffffffffffffffffffffff16148061061d5750600260003373ffffffffffffffffffffffffffffffffffffffff1673ffffffffffffffffffffffffffffffffffffffff16815260200190815260200160002060009054906101000a900460ff165b61065c576040517f08c379a000000000000000000000000000000000000000000000000000000000815260040161065390610f89565b60405180910390fd5b6000805461066990610b86565b80601f016020809104026020016040519081016040528092919081815260200182805461069590610b86565b80156106e25780601f106106b7576101008083540402835291602001916106e2565b820191906000526020600020905b8154815290600101906020018083116106c557829003601f168201915b5050505050905090565b6000604051905090565b600080fd5b600080fd5b600080fd5b600080fd5b6000601f19601f8301169050919050565b7f4e487b7100000000000000000000000000000000000000000000000000000000600052604160045260246000fd5b6107538261070a565b810181811067ffffffffffffffff821117156107725761077161071b565b5b80604052505050565b60006107856106ec565b9050610791828261074a565b919050565b600067ffffffffffffffff8211156107b1576107b061071b565b5b6107ba8261070a565b9050602081019050919050565b82818337600083830152505050565b60006107e96107e484610796565b61077b565b90508281526020810184848401111561080557610804610705565b5b6108108482856107c7565b509392505050565b600082601f83011261082d5761082c610700565b5b813561083d8482602086016107d6565b91505092915050565b60006020828403121561085c5761085b6106f6565b5b600082013567ffffffffffffffff81111561087a576108796106fb565b5b61088684828501610818565b91505092915050565b600073ffffffffffffffffffffffffffffffffffffffff82169050919050565b60006108ba8261088f565b9050919050565b6108ca816108af565b81146108d557600080fd5b50565b6000813590506108e7816108c1565b92915050565b600060208284031215610903576109026106f6565b5b6000610911848285016108d8565b91505092915050565b610923816108af565b82525050565b600060208201905061093e600083018461091a565b92915050565b600081519050919050565b600082825260208201905092915050565b6000819050602082019050919050565b610979816108af565b82525050565b600061098b8383610970565b60208301905092915050565b6000602082019050919050565b60006109af82610944565b6109b9818561094f565b93506109c483610960565b8060005b838110156109f55781516109dc888261097f565b97506109e783610997565b9250506001810190506109c8565b5085935050505092915050565b60006020820190508181036000830152610a1c81846109a4565b905092915050565b600081519050919050565b600082825260208201905092915050565b60005b83811015610a5e578082015181840152602081019050610a43565b60008484015250505050565b6000610a7582610a24565b610a7f8185610a2f565b9350610a8f818560208601610a40565b610a988161070a565b840191505092915050565b60006020820190508181036000830152610abd8184610a6a565b905092915050565b7f4f6e6c7920746865206f776e65722063616e206578656375746520746869732060008201527f66756e6374696f6e000000000000000000000000000000000000000000000000602082015250565b6000610b21602883610a2f565b9150610b2c82610ac5565b604082019050919050565b60006020820190508181036000830152610b5081610b14565b9050919050565b7f4e487b7100000000000000000000000000000000000000000000000000000000600052602260045260246000fd5b60006002820490506001821680610b9e57607f821691505b602082108103610bb157610bb0610b57565b5b50919050565b60008190508160005260206000209050919050565b60006020601f8301049050919050565b600082821b905092915050565b600060088302610c197fffffffffffffffffffffffffffffffffffffffffffffffffffffffffffffffff82610bdc565b610c238683610bdc565b95508019841693508086168417925050509392505050565b6000819050919050565b6000819050919050565b6000610c6a610c65610c6084610c3b565b610c45565b610c3b565b9050919050565b6000819050919050565b610c8483610c4f565b610c98610c9082610c71565b848454610be9565b825550505050565b600090565b610cad610ca0565b610cb8818484610c7b565b505050565b5b81811015610cdc57610cd1600082610ca5565b600181019050610cbe565b5050565b601f821115610d2157610cf281610bb7565b610cfb84610bcc565b81016020851015610d0a578190505b610d1e610d1685610bcc565b830182610cbd565b50505b505050565b600082821c905092915050565b6000610d4460001984600802610d26565b1980831691505092915050565b6000610d5d8383610d33565b9150826002028217905092915050565b610d7682610a24565b67ffffffffffffffff811115610d8f57610d8e61071b565b5b610d998254610b86565b610da4828285610ce0565b600060209050601f831160018114610dd75760008415610dc5578287015190505b610dcf8582610d51565b865550610e37565b601f198416610de586610bb7565b60005b82811015610e0d57848901518255600182019150602085019450602081019050610de8565b86831015610e2a5784890151610e26601f891682610d33565b8355505b6001600288020188555050505b505050505050565b7f57616c6c6574206164647265737320616c726561647920616464656400000000600082015250565b6000610e75601c83610a2f565b9150610e8082610e3f565b602082019050919050565b60006020820190508181036000830152610ea481610e68565b9050919050565b7f57686974656c697374206c696d69742072656163686564000000000000000000600082015250565b6000610ee1601783610a2f565b9150610eec82610eab565b602082019050919050565b60006020820190508181036000830152610f1081610ed4565b9050919050565b7f4f6e6c792077686974656c6973746564206164647265737365732063616e206560008201527f78656375746520746869732066756e6374696f6e000000000000000000000000602082015250565b6000610f73603483610a2f565b9150610f7e82610f17565b604082019050919050565b60006020820190508181036000830152610fa281610f66565b905091905056fea264697066735822122009ef211bf86a88f3eab1acf1396e7ae55798a839dfdfeddfc311cb0d7396782a64736f6c634300081c0033",
  "linkReferences": {},
  "deployedLinkReferences": {}
}